:100000000C9472000C949A000C949A000C949A0030
:100010000C949A000C949A000C949A000C949A00F8
:100020000C949A000C949A000C949A000C949A00E8
:100030000C949A000C949A000C949A000C949A00D8
:100040000C943E050C949A000C940C050C94E60458
:100050000C949A000C949A000C949A000C949A00B8
:100060000C949A000C949A00005EBCE2613FDD8320
:10007000C29C7E20A3FD1F41009D23BE46DB65F888
:100080008C11AF32CA57E974000000080002010069
:100090000003040700000000000000000000000052
:1000A000250028002B0000000000240027002A0063
:1000B00000000000230026002900040404040404B6
:1000C0000404020202020202030303030303010207
:1000D00004081020408001020408102001020408D6
:1000E0001020880511241FBECFEFD8E0DEBFCDBFA2
:1000F00011E0A0E0B1E0E2EAF6E102C005900D9265
:10010000A634B107D9F722E0A6E4B1E001C01D9200
:10011000A131B207E1F710E0C2E7D0E004C02197B7
:10012000FE010E94440BC137D107C9F70E942B067C
:100130000C944F0B0C940000CF92DF92EF92FF9241
:100140000F931F93CF93DF936C017A018B01C0E073
:10015000D0E0CE15DF0581F0D8016D918D01D6017B
:10016000ED91FC910190F081E02DC6010995892B5C
:1001700011F02196EECF7E01C701DF91CF911F9143
:100180000F91FF90EF90DF90CF900895089580E059
:1001900090E00895FC01538D448D252F30E0842F8D
:1001A00090E0821B930B541710F0CF96089501979F
:1001B0000895FC01918D828D981761F0828DDF0189
:1001C000A80FB11D5D968C91928D9F5F9F73928F4A
:1001D00090E008958FEF9FEF0895FC01918D828D3F
:1001E000981731F0828DE80FF11D858D90E008950C
:1001F0008FEF9FEF0895FC01918D228D892F90E064
:10020000805C9F4F821B91098F73992708958FE41B
:1002100091E00E94FB0021E0892B09F420E0822F6D
:100220000895FC01848DDF01A80FB11DA35ABF4FB3
:100230002C91848D90E001968F739927848FA689E5
:10024000B7892C93A089B1898C91837080648C9339
:10025000938D848D981306C00288F389E02D8081E8
:100260008F7D80830895EF92FF920F931F93CF931A
:10027000DF93EC0181E0888F9B8D8C8D981305C0F6
:10028000E889F989808185FD26C0F62E0B8D10E066
:100290000F5F1F4F0F731127E02E8C8DE8120CC0DB
:1002A0000FB607FCFACFE889F989808185FFF5CF81
:1002B000CE010E941101F1CF8B8DFE01E80FF11DDF
:1002C000E35AFF4FF0829FB7F8940B8FEA89FB89BE
:1002D000808180620AC09FB7F894EE89FF896083AD
:1002E000E889F98980818370806480839FBF81E081
:1002F00090E0DF91CF911F910F91FF90EF900895C3
:10030000CF93DF93EC01888D8823C9F0EA89FB89BC
:10031000808185FD05C0A889B9898C9186FD0FC0B3
:100320000FB607FCF5CF808185FFF2CFA889B98988
:100330008C9185FFEDCFCE010E941101E7CFDF91B7
:10034000CF91089580E090E0892B29F00E94070169
:1003500081110C940000089590E0FC01E857FF4FD4
:100360002491FC01E253FF4F3491FC01E654FF4F0E
:10037000E491EE2309F43CC0222339F1233091F0BB
:1003800038F42130A9F0223001F584B58F7D12C0F8
:10039000273091F02830A1F02430B9F4809180000A
:1003A0008F7D03C0809180008F77809380000DC087
:1003B00084B58F7784BD09C08091B0008F7703C06A
:1003C0008091B0008F7D8093B000F0E0EE0FFF1FB2
:1003D000E456FF4FA591B4919FB7F894611104C002
:1003E0008C913095382302C0EC913E2B3C939FBFFB
:1003F00008953FB7F8948091470190914801A091EA
:100400004901B0914A0126B5A89B05C02F3F19F0BC
:100410000196A11DB11D3FBFBA2FA92F982F882784
:10042000820F911DA11DB11DBC01CD0142E0660FDF
:10043000771F881F991F4A95D1F708958F929F9231
:10044000AF92BF92CF92DF92EF92FF926B017C014D
:100450000E94F9014B015C01C114D104E104F104D3
:10046000F1F00E94F901DC01CB0188199909AA0970
:10047000BB09883E9340A105B10570F321E0C21A83
:10048000D108E108F10888EE880E83E0981EA11CCF
:10049000B11CC114D104E104F10419F7DDCFFF90C0
:1004A000EF90DF90CF90BF90AF909F908F90089586
:1004B000DC0180E0615098F02D91982F9227E92F70
:1004C000EF70F0E0E859FF4F249192959F70E92F6B
:1004D000F0E0E858FF4FE491822F8E27EBCF08958C
:1004E000FC0190810180F281E02DF8948181892BBB
:1004F00081832281892F809528232283A7E0B0E081
:100500001197F1F7218182238183A3E2B0E0119753
:10051000F1F780817894EFECF0E03197F1F79823D0
:1005200081E009F480E00895FC0190810180F2816E
:10053000E02D892F809560FF12C0F89422818223DC
:1005400082838181892B8183A3E2B0E01197F1F747
:100550008281982B9283789487ED90E011C0F89473
:100560002281822382838181892B8183AFEFB0E056
:100570001197F1F78281982B928378948FE090E025
:100580000197F1F70895DF92EF92FF920F931F9377
:10059000CF93DF93EC01D62EE42E08E010E0FF2489
:1005A000F39461E08D2D8F2109F460E0CE010E946B
:1005B0009402FF0C01501109A1F7E11010C0F8944A
:1005C000E981FA8191818881809589238183E981FC
:1005D000FA81928188818095892382837894DF9142
:1005E000CF911F910F91FF90EF90DF900895EF92C0
:1005F000FF920F931F93CF93DF938C017B0140E019
:1006000065E50E94C302E70188E0E80EF11C6991EC
:1006100040E0C8010E94C302CE15DF05C1F7DF919B
:10062000CF911F910F91FF90EF900895DC012C91D5
:100630001196ED91FC911297F8948181922F9095EB
:100640008923818378948DE743E050E0815021F144
:10065000DA011197F1F730813223C1F3F8948281E6
:10066000892382838181822B81837894ABE7B7E0F1
:100670001197F1F7F89481819823918383E191E0B8
:100680000197F1F78081282381E009F080E07894D8
:10069000E3E6F6E03197F1F708956F927F928F923B
:1006A0009F92AF92BF92CF92DF92EF92FF920F9301
:1006B0001F93CF93DF938C01EB018091F501909113
:1006C000F6010E941603882309F447C0B8018091FF
:1006D000F5019091F6010E94F70240E06EEB8091E7
:1006E000F5019091F6010E94C3028E016E0189E02E
:1006F000C80ED11C7E01A090F501B090F60188E0F3
:10070000882E912C712C66246394C5010E9470027E
:1007100081117628660CE1E08E1A9108B1F7F70195
:1007200071927F01CE16DF0631F78091F50190912D
:10073000F6010E941603813081F4F80181918F0146
:10074000811104C0EC15FD05C1F707C068E0CE01BA
:100750000E94580291E02885281390E0892FDF91AC
:10076000CF911F910F91FF90EF90DF90CF90BF90AE
:10077000AF909F908F907F906F900895BF92CF928F
:10078000DF92EF92FF920F931F93CF93DF93EC01D1
:100790006B018D85811105C0CE010E941603811168
:1007A00005C01B861D861C8680E060C040E060EFAF
:1007B000CE010E94C30201E0E12CB12C11E0CE0178
:1007C0000E947002F82ECE010E94700291E0F91290
:1007D00003C08130B1F434C02E2D30E0F8121BC0BC
:1007E0008B85181738F4FE01E20FF31F83818023F5
:1007F00041F402C0811729F0F12C193058F41C87FC
:1008000009C0FE01EE0DF11D8381802B8383FF243F
:10081000F39409C0B12EFE01E20FF31F9381802FE4
:100820008095892383836F2DCE010E9494021F5FE0
:10083000000F11F4E39401E087E08E1508F0BFCFBC
:10084000113408F4AECFBB86B11002C081E08D87B1
:100850008B81882309F4A5CFDE011396F6012B9630
:100860008D918193CA17DB07D9F781E0DF91CF9192
:100870001F910F91FF90EF90DF90CF90BF90089560
:100880000F931F93CF93DF93CDB7DEB761970FB66A
:10089000F894DEBF0FBECDBF082FE091F501F091B7
:1008A000F601138615861486DF011B9633961E9279
:1008B000AE17BF07E1F710E0BE01665F7F4F809182
:1008C000F5019091F6010E94BE03882369F001139F
:1008D00008C067E0CE010A960E94580299898917DC
:1008E00041F01F5F011740F760E070E08EEF92EC7F
:1008F0004EC0BE016F5F7F4FCE010A960E944D032E
:10090000882309F441C02A8130E0C901982F882743
:10091000990F990F990F698128E0629FB001112406
:100920009C01262B372B8A858031D9F46885662374
:10093000C1F070E08F81AB01481B5109CA01969547
:10094000982F8827979587950E94FA0A6052710917
:10095000207F53E0220F331F5A95E1F7620F731F78
:1009600001C0B901613854EE75070CF4BDCF072EF4
:10097000000C880B990B0E94D30920E030E040E086
:100980005CE30E94880A03C060E874EEEBCF6196D6
:100990000FB6F894DEBF0FBECDBFDF91CF911F9190
:1009A0000F910895009769F0FC0101900020E9F78C
:1009B0003197AF01481B590BBC018FE491E00C94B7
:1009C0009C0080E090E008950E944A0B1F920F92D5
:1009D0000FB60F9211242F933F934F935F936F9312
:1009E0007F938F939F93AF93BF93EF93FF938FE486
:1009F00091E00E941101FF91EF91BF91AF919F9102
:100A00008F917F916F915F914F913F912F910F90B7
:100A10000FBE0F901F9018951F920F920FB60F9256
:100A200011242F938F939F93EF93FF93E0915F0196
:100A3000F09160018081E0916501F091660182FD95
:100A400012C09081809168018F5F8F73209169013E
:100A5000821751F0E0916801F0E0E15BFE4F958F65
:100A60008093680101C08081FF91EF919F918F91E8
:100A70002F910F900FBE0F901F9018951F920F92FD
:100A80000FB60F9211242F933F938F939F93AF93A1
:100A9000BF9380914B0190914C01A0914D01B09179
:100AA0004E013091460123E0230F2D3720F40196AB
:100AB000A11DB11D05C026E8230F0296A11DB11D81
:100AC0002093460180934B0190934C01A0934D01DC
:100AD000B0934E018091470190914801A091490146
:100AE000B0914A010196A11DB11D809347019093D9
:100AF0004801A0934901B0934A01BF91AF919F91E2
:100B00008F913F912F910F900FBE0F901F901895CE
:100B1000CF93DF93109252011092510188EE93E02F
:100B2000A0E0B0E08093530190935401A09355014D
:100B3000B09356018AE091E09093500180934F0169
:100B400085EC90E090935C0180935B0184EC90E0F5
:100B500090935E0180935D0180EC90E09093600142
:100B600080935F0181EC90E090936201809361013A
:100B700082EC90E0909364018093630186EC90E0B6
:100B8000909366018093650110926801109269014B
:100B900010926A0110926B01E5EDF0E02491E1EC16
:100BA000F0E084918823C1F090E0880F991FFC0148
:100BB000EA55FF4FC591D491FC01E456FF4FA59132
:100BC000B4919FB7F8948881E22FE0958E238883B3
:100BD0008C91E823EC939FBFE5EDF0E0E491E09386
:100BE0000302E1ECF0E0E491F0E0EE0FFF1FE055CE
:100BF000FF4F859194919093050280930402109287
:100C00000E021092100210920F02EEE0F2E0129229
:100C100082E0E630F807D9F7109202021092010242
:100C20001092ED0183E092E09093F6018093F5013C
:100C30001092F3011092F4011092EC0189E080937C
:100C4000EF0181E08093F0018093F1018093F20144
:100C5000DF91CF910895CF93DF93CDB7DEB7A997FA
:100C60000FB6F894DEBF0FBECDBF789484B5826016
:100C700084BD84B5816084BD85B5826085BD85B540
:100C8000816085BD80916E00816080936E001092BE
:100C90008100809181008260809381008091810039
:100CA00081608093810080918000816080938000CA
:100CB0008091B10084608093B1008091B000816028
:100CC0008093B00080917A00846080937A00809154
:100CD0007A00826080937A0080917A0081608093AC
:100CE0007A0080917A00806880937A001092C10027
:100CF000E0915F01F091600182E08083E0915B010F
:100D0000F0915C011082E0915D01F0915E0180E163
:100D1000808310926701E0916301F091640186E0A5
:100D20008083E0916101F091620180818061808324
:100D3000E0916101F0916201808188608083E0919F
:100D40006101F0916201808180688083E09161019E
:100D5000F091620180818F7D8083E091F501F091B7
:100D6000F601138615861486DF011B9633961E92B4
:100D7000EA17FB07E1F71092F3011092F40111E07A
:100D8000BE016E5D7F4F8091F5019091F6010E944A
:100D9000BE038823F1F067E0CE0182960E945802DC
:100DA00099A58913EDCF8091F3018F5F8093F301B3
:100DB0008AA1883209F488C130F4803109F484C1F1
:100DC0008232F1F681C18B3309F47EC18234C1F6DF
:100DD0007BC164EC79E080E090E00E941E0280918B
:100DE000F5019091F6010E94160340E06CEC8091B1
:100DF000F5019091F6010E94C3024091EC0164E478
:100E00008091F5019091F6010E94C3028091F0015A
:100E1000882309F459C0E091EF018091F101882302
:100E200061F18091EC01811128C08FB7F894C090D6
:100E30004B01D0904C01E0904D01F0904E018FBFDE
:100E40008091F5019091F6010E9470028130E1F1EC
:100E50002FB7F89480914B0190914C01A0914D01D6
:100E6000B0914E012FBF8C199D09AE09BF098E3E6E
:100E70009240A105B10520F327C0E950E33040F4CA
:100E8000F0E0EE0FFF1FE050FF4F8081918102C024
:100E90008EEE92E06C01990FEE08FF088091ED0153
:100EA000882329F060E08091EE010E94AC01C70127
:100EB000B6010E941E028091ED01882329F061E0B5
:100EC0008091EE010E94AC0180E00E9440044B0141
:100ED0005C0181E00E9440042B013C0182E00E9401
:100EE00040046B017C01A3019201C501B4010E9481
:100EF000BF08A70196010E94BF0820E030E040E44F
:100F000050E40E9430096B017C014B015C0188E1D7
:100F100091E00E94D204A7019601C701B6010E9488
:100F2000F50A882319F086E291E01AC026013701FC
:100F3000E89477F82FEF3FEF4FE75FE7C301B20187
:100F40000E94F50A81110FC02FEF3FEF4FE75FE7D7
:100F5000C301B2010E942B0918162CF48AE291E019
:100F60000E94D204A0C02FEF3FEF4FE75FE4C7011C
:100F7000B6010E94830A18161CF48EE291E0F0CFAD
:100F80002FEF3FEF4FE75FECC701B6010E942B093F
:100F900087FDF3CF20E030E0A901C701B6010E9430
:100FA0002B0987FF0BC06DE28FE491E00E943301B3
:100FB00046015701B7FAB094B7F8B0942AE037ED7C
:100FC00043EA5BE3C501B4010E94BF086B017C01E9
:100FD0000E94A2094B015C010E94D1099B01AC0156
:100FE000C701B6010E94BE082B013C0119A27E0177
:100FF00081E2E80EF11C0E2DDF2CC501B4012AE0C0
:1010000030E040E050E00E940E0B49015A01605D63
:10101000F70162937F01232B242B252B71F7CF013E
:101020000E94D2046EE28FE491E00E94330113E04B
:101030001150C9F120E030E040E251E4C301B201B7
:101040000E94880A4B015C010E94A2099B0140E0BA
:1010500050E019A2E02EFD2C562E632E742EC52EC4
:10106000CA01B9012AE030E040E050E00E940E0BD6
:10107000605DF70162937F0121153105410551053E
:1010800079F7CF010E94D204652D762D872D9C2DF6
:101090000E94D1099B01AC01C501B4010E94BE08A8
:1010A0002B013C01C5CF82E391E00E94D20483E48E
:1010B00091E00E94D20464EC79E080E090E00E942C
:1010C0001E020E94A2018BCE8091F4018F5F80935B
:1010D000F4018091EC01811126C08091F50190917D
:1010E000F6010E941603BE016E5D7F4F8091F501EF
:1010F0009091F6010E94F70240E064EB8091F501C7
:101100009091F6010E94C3028091F5019091F60141
:101110000E947002082F8091F5019091F6010E94C3
:101120001603002341F18AA18031E1F0BE016F5F17
:101130007F4FCE0182960E944D03882389F08D81D6
:101140008F3361F020F48F3159F489E00CC08F3572
:1011500019F08F3739F004C08BE005C08AE003C076
:1011600080E001C08CE09091EF01981708F008CE64
:101170008093EF0105CE1093EC01D5CF5058BB27DB
:10118000AA270E94D6080C94490A0E943B0A38F00C
:101190000E94420A20F039F49F3F19F426F40C947F
:1011A000380A0EF4E095E7FB0C94320AE92F0E940E
:1011B0005A0A58F3BA17620773078407950720F095
:1011C00079F4A6F50C947C0A0EF4E0950B2EBA2F58
:1011D000A02D0B01B90190010C01CA01A00111243D
:1011E000FF27591B99F0593F50F4503E68F11A16E9
:1011F000F040A22F232F342F4427585FF3CF46957A
:1012000037952795A795F0405395C9F77EF41F169B
:10121000BA0B620B730B840BBAF09150A1F0FF0F65
:10122000BB1F661F771F881FC2F70EC0BA0F621F51
:10123000731F841F48F4879577956795B795F79541
:101240009E3F08F0B0CF9395880F08F09927EE0FD6
:101250009795879508950E940E0A08F481E00895F5
:101260000E9444090C94490A0E94420A58F00E94C4
:101270003B0A40F029F45F3F29F00C94320A5111E7
:101280000C947D0A0C94380A0E945A0A68F3992338
:10129000B1F3552391F3951B550BBB27AA27621772
:1012A0007307840738F09F5F5F4F220F331F441F7F
:1012B000AA1FA9F335D00E2E3AF0E0E832D09150B3
:1012C0005040E695001CCAF72BD0FE2F29D0660FA0
:1012D000771F881FBB1F261737074807AB07B0E8E3
:1012E00009F0BB0B802DBF01FF2793585F4F3AF0E9
:1012F0009E3F510578F00C94320A0C947D0A5F3FB2
:10130000E4F3983ED4F3869577956795B795F7956E
:101310009F5FC9F7880F911D9695879597F9089556
:10132000E1E0660F771F881FBB1F621773078407F2
:10133000BA0720F0621B730B840BBA0BEE1F88F701
:10134000E09508950E94620A88F09F5798F0B92F9F
:101350009927B751B0F0E1F0660F771F881F991FEA
:101360001AF0BA95C9F714C0B13091F00E947C0A06
:10137000B1E008950C947C0A672F782F8827B85F16
:1013800039F0B93FCCF3869577956795B395D9F742
:101390003EF490958095709561957F4F8F4F9F4F4C
:1013A0000895E89409C097FB3EF490958095709558
:1013B00061957F4F8F4F9F4F9923A9F0F92F96E9A1
:1013C000BB279395F695879577956795B795F11116
:1013D000F8CFFAF4BB0F11F460FF1BC06F5F7F4FB3
:1013E0008F4F9F4F16C0882311F096E911C07723C5
:1013F00021F09EE8872F762F05C0662371F096E8CE
:10140000862F70E060E02AF09A95660F771F881F9C
:10141000DAF7880F9695879597F90895990F000840
:10142000550FAA0BE0E8FEEF16161706E807F907B6
:10143000C0F012161306E407F50798F0621B730B51
:10144000840B950B39F40A2661F0232B242B252BD2
:1014500021F408950A2609F4A140A6958FEF811D75
:10146000811D089597F99F6780E870E060E0089516
:101470009FEF80EC089500240A94161617061806AC
:101480000906089500240A94121613061406050688
:101490000895092E0394000C11F4882352F0BB0F19
:1014A00040F4BF2B11F460FF04C06F5F7F4F8F4F7C
:1014B0009F4F089557FD9058440F551F59F05F3FB7
:1014C00071F04795880F97FB991F61F09F3F79F066
:1014D00087950895121613061406551FF2CF4695E8
:1014E000F1DF08C0161617061806991FF1CF86956A
:1014F0007105610508940895E894BB27662777274E
:10150000CB0197F908950E940E0A08F48FEF089511
:101510000E949B0A0C94490A0E943B0A38F00E94E0
:10152000420A20F0952311F00C94320A0C94380AE8
:1015300011240C947D0A0E945A0A70F3959FC1F3FE
:10154000950F50E0551F629FF001729FBB27F00D71
:10155000B11D639FAA27F00DB11DAA1F649F6627C6
:10156000B00DA11D661F829F2227B00DA11D621F15
:10157000739FB00DA11D621F839FA00D611D221FCF
:10158000749F3327A00D611D231F849F600D211DB3
:10159000822F762F6A2F11249F5750409AF0F1F036
:1015A00088234AF0EE0FFF1FBB1F661F771F881F9F
:1015B00091505040A9F79E3F510580F00C94320A9B
:1015C0000C947D0A5F3FE4F3983ED4F386957795BB
:1015D0006795B795F795E7959F5FC1F7FE2B880F45
:1015E000911D9695879597F908950E940E0A880B8C
:1015F000990B089597FB072E16F4009407D077FDFA
:1016000009D00E94300B07FC05D03EF490958195DF
:101610009F4F0895709561957F4F0895A1E21A2E0E
:10162000AA1BBB1BFD010DC0AA1FBB1FEE1FFF1F86
:10163000A217B307E407F50720F0A21BB30BE40BD6
:10164000F50B661F771F881F991F1A9469F760951D
:101650007095809590959B01AC01BD01CF010895D7
:10166000AA1BBB1B51E107C0AA1FBB1FA617B707C8
:1016700010F0A61BB70B881F991F5A95A9F78095E4
:101680009095BC01CD010895EE0FFF1F0590F491D8
:10169000E02D099481E090E0F8940C944F0BF894BD
:0216A000FFCF7A
:1016A2005E00BC0077010000000033019C00CA000C
:1016B2008001FB00D900ED0054656D7065726174A4
:1016C2007572653A20006E616E00696E66006F7613
:1016D200660020446567726565732043656C7369B3
:0616E2007573000D0A0003
:00000001FF
